{
  "contractName": "Patents",
  "abi": [
    {
      "anonymous": false,
      "inputs": [
        {
          "indexed": false,
          "internalType": "uint256",
          "name": "index",
          "type": "uint256"
        }
      ],
      "name": "PatentAdded",
      "type": "event"
    },
    {
      "constant": true,
      "inputs": [],
      "name": "numPatents",
      "outputs": [
        {
          "internalType": "uint256",
          "name": "",
          "type": "uint256"
        }
      ],
      "payable": false,
      "stateMutability": "view",
      "type": "function"
    },
    {
      "constant": true,
      "inputs": [
        {
          "internalType": "uint256",
          "name": "",
          "type": "uint256"
        }
      ],
      "name": "patents",
      "outputs": [
        {
          "internalType": "uint256",
          "name": "id",
          "type": "uint256"
        },
        {
          "internalType": "string",
          "name": "description",
          "type": "string"
        },
        {
          "internalType": "address",
          "name": "owner",
          "type": "address"
        }
      ],
      "payable": false,
      "stateMutability": "view",
      "type": "function"
    },
    {
      "constant": false,
      "inputs": [
        {
          "internalType": "string",
          "name": "_description",
          "type": "string"
        }
      ],
      "name": "newPatent",
      "outputs": [],
      "payable": false,
      "stateMutability": "nonpayable",
      "type": "function"
    }
  ],
  "bytecode": "0x60806040526000805534801561001457600080fd5b506104c7806100246000396000f3fe608060405234801561001057600080fd5b50600436106100415760003560e01c80633d4ec00414610046578063645846b914610101578063f422bc681461011f575b600080fd5b6100ff6004803603602081101561005c57600080fd5b810190808035906020019064010000000081111561007957600080fd5b82018360208201111561008b57600080fd5b803590602001918460018302840111640100000000831117156100ad57600080fd5b91908080601f016020809104026020016040519081016040528093929190818152602001838380828437600081840152601f19601f820116905080830192505050505050509192919290505050610200565b005b610109610305565b6040518082815260200191505060405180910390f35b61014b6004803603602081101561013557600080fd5b810190808035906020019092919050505061030b565b60405180848152602001806020018373ffffffffffffffffffffffffffffffffffffffff1673ffffffffffffffffffffffffffffffffffffffff168152602001828103825284818151815260200191508051906020019080838360005b838110156101c35780820151818401526020810190506101a8565b50505050905090810190601f1680156101f05780820380516001836020036101000a031916815260200191505b5094505050505060405180910390f35b604051806060016040528060005481526020018281526020013373ffffffffffffffffffffffffffffffffffffffff16815250600160008054815260200190815260200160002060008201518160000155602082015181600101908051906020019061026d9291906103ed565b5060408201518160020160006101000a81548173ffffffffffffffffffffffffffffffffffffffff021916908373ffffffffffffffffffffffffffffffffffffffff16021790555090505060008081548092919060010191905055507fe4d1601483f14fd363bcb881847d666123c50d69d92ccb76c7f2a0cb0405a5076000546040518082815260200191505060405180910390a150565b60005481565b6001602052806000526040600020600091509050806000015490806001018054600181600116156101000203166002900480601f0160208091040260200160405190810160405280929190818152602001828054600181600116156101000203166002900480156103bd5780601f10610392576101008083540402835291602001916103bd565b820191906000526020600020905b8154815290600101906020018083116103a057829003601f168201915b5050505050908060020160009054906101000a900473ffffffffffffffffffffffffffffffffffffffff16905083565b828054600181600116156101000203166002900490600052602060002090601f016020900481019282601f1061042e57805160ff191683800117855561045c565b8280016001018555821561045c579182015b8281111561045b578251825591602001919060010190610440565b5b509050610469919061046d565b5090565b61048f91905b8082111561048b576000816000905550600101610473565b5090565b9056fea265627a7a72315820b789e5b17847116a40b1c9024cbb0d19882a4ea08206973af0557e5235a56d7364736f6c63430005100032",
  "source": "pragma solidity ^0.5.0;\n\ncontract Patents {\n\n  struct Patent {\n    uint id;\n    string description;\n    address owner;\n  }\n\n  event PatentAdded(uint256 index);\n\n  uint public numPatents = 0;\n  mapping(uint => Patent) public patents;\n\n  function newPatent(string memory _description) public {\n    patents[numPatents] = Patent(\n      numPatents,\n      _description,\n      msg.sender\n    );\n    numPatents++;\n    emit PatentAdded(numPatents);\n  }\n}",
  "sourcePath": "/home/suhavi/Documents/KafkaSummitDemo/patentrail-be/contracts/Patents.sol",
  "compiler": {
    "name": "solc",
    "version": "0.5.16+commit.9c3226ce.Emscripten.clang"
  },
  "schemaVersion": "3.3.1",
  "updatedAt": "2021-06-07T16:19:14.124Z",
  "networkType": "ethereum",
  "devdoc": {
    "methods": {}
  },
  "userdoc": {
    "methods": {}
  }
}